{
  "contractName": "Simple",
  "abi": [
    {
      "inputs": [],
      "name": "data",
      "outputs": [
        {
          "internalType": "uint256",
          "name": "",
          "type": "uint256"
        }
      ],
      "stateMutability": "view",
      "type": "function",
      "constant": true
    },
    {
      "inputs": [
        {
          "internalType": "uint256",
          "name": "_data",
          "type": "uint256"
        }
      ],
      "name": "setData",
      "outputs": [],
      "stateMutability": "nonpayable",
      "type": "function"
    },
    {
      "inputs": [],
      "name": "getData",
      "outputs": [
        {
          "internalType": "uint256",
          "name": "",
          "type": "uint256"
        }
      ],
      "stateMutability": "view",
      "type": "function",
      "constant": true
    }
  ],
  "bytecode": "0x608060405234801561001057600080fd5b50610176806100206000396000f3fe608060405234801561001057600080fd5b50600436106100415760003560e01c80633bc5de30146100465780635b4b73a91461006457806373d4a13a14610080575b600080fd5b61004e61009e565b60405161005b9190610104565b60405180910390f35b61007e600480360381019061007991906100cc565b6100a7565b005b6100886100b1565b6040516100959190610104565b60405180910390f35b60008054905090565b8060008190555050565b60005481565b6000813590506100c681610129565b92915050565b6000602082840312156100de57600080fd5b60006100ec848285016100b7565b91505092915050565b6100fe8161011f565b82525050565b600060208201905061011960008301846100f5565b92915050565b6000819050919050565b6101328161011f565b811461013d57600080fd5b5056fea2646970667358221220093297c20cdbcb9cacd5fb6bef32e16a33406841bd9cd0a2831f18b0b13190df64736f6c63430008000033",
  "immutableReferences": {},
  "source": "// SPDX-License-Identifier: MIT\npragma solidity >=0.4.22 <0.9.0;\n\ncontract Simple {\n    uint256 public data;\n\n    function setData(uint256 _data) public {\n        data = _data;\n    }\n\n    function getData() public view returns (uint256) {\n        return data;\n    }\n}\n",
  "sourcePath": "/Volumes/APPLE HDD/reactprojects/ethers-simple/contracts/Simple.sol",
  "compiler": {
    "name": "solc",
    "version": "0.8.0+commit.c7dfd78e.Emscripten.clang"
  },
  "schemaVersion": "3.4.3",
  "updatedAt": "2021-11-12T11:17:42.429Z",
  "networkType": "ethereum",
  "devdoc": {
    "kind": "dev",
    "methods": {},
    "version": 1
  },
  "userdoc": {
    "kind": "user",
    "methods": {},
    "version": 1
  }
}